:020000040000FA
:10000000000002289230AE000130AF0080300000C6
:1000100000004A210000000083120000C5002F08E4
:10002000C4009430C6000130C700831200004408A9
:10003000C8004508C900FF30C407031CC5034908B0
:10004000480403199A2804304607C800C901C90D9D
:100050004708C9074808AE004908AF0080300000D3
:1000600000004A210000000083120000CB002F088E
:10007000CA004608AE004708AF008030000000000C
:100080004A210000000083120000CD00C9002F08A3
:10009000C800CC0002304607C800C901C90D470896
:1000A000C9074808AE004908AF00803000000000D2
:1000B0004A210000000083120000C900CF002F0871
:1000C000CE00C800831200004A08CE004B08CF00C3
:1000D000FF30CA07031CCB034F084E0403199328B3
:1000E0004C08AE004D08AF00803000000000372102
:1000F0000000000083120000CE00480883120313A2
:100100008400831383120000491883174E0883125A
:100110000313800083120000CC0A0319CD0AC80A19
:100120000319C90A6228063083120000C6070318A3
:10013000C70A152800000000EB2808008312000001
:10014000D1002F08D0002E08D3002D08D200D401F2
:10015000D5018312000053088039031D0130D600F9
:100160005608031DCA280310D20DD30D530851029F
:10017000031DBC28520850020318C4280310831220
:100180000000D30CD20CCA2883120000D50A5508EF
:10019000D400A9288312000053085102031DD2285D
:1001A00052085002031CDC28831200005208D002BF
:1001B0005308031C530FD102031083120000D30C09
:1001C000D20C5408D500D4035508031DCA28500882
:1001D000AF0051080800283083168500831285017E
:1001E000B001B101B201B301B20A0319B30A0A3076
:1001F000AD000030AE003208AF0033089E20B500DD
:100200002F08B400B60183128519B60A3608013AE0
:10021000031D2A29B00A0319B10AB601B70100303B
:100220003702031D15290A30360203182A29360819
:100230003406031D262937083506031D26293608EE
:10024000831285000A30AF0000306B21B60A031913
:10025000B70A0F293008103A031DF4283108003A74
:10026000031DF428093083128500F4280800003AA1
:1002700003193E29803A0319452900342E088400C9
:1002800083132F188317000808002F088A002E08F0
:1002900082000800003A03195229803A03195C29A8
:1002A000AF0100342E08840083132F188317000831
:1002B000AF00840A00080800000000004521AD00DE
:1002C000AE0FAF03AF0A000000004521AC002D08BF
:1002D000AF002C080800B9002F08B800BA01BB0114
:1002E00039083B02031D762938083A020318912980
:1002F000FB30BC000430BD00FF303C07BE00FF30C7
:10030000BF003D0803183D0FBF073E08BC003F0873
:10031000BD003F083E04031D7C29BA0A0319BB0A2D
:1003200070290800013400349A3401345734003401
:060330000134003400342A
:02400E00973FDA
:00000001FF
