:020000040000FA
:100000000000E82808308316850083128501B001BE
:10001000B101B2010130B3006430AF00003066229C
:10002000B401B50183128512B6018519B60A3608E6
:10003000013A031DE3288516B601B701B801B901DD
:100040003408BA003508BB00BC0100303902031D7A
:1000500033283C083802031D33283B083702031DB0
:1000600033283A08360203185A283008BA003A0EE4
:10007000F039BB00BA003006BB003108B0003208CE
:10008000B1003308B2003B083306BA000310330C4A
:10009000BC00BA063B08BC0003103C0DBB00BC0012
:1000A0003A06B300B60A0319B70A0319B80A0319C6
:1000B000B90A2028B7010A30AD000030AE0033087D
:1000C000B600AF0000308421B7002F08B600003022
:1000D0003702031D6D280A3036020318E32800306A
:1000E0008A007630360703188A0A820080288A2818
:1000F00094289E28A828B228BC28C628D028DA2808
:10010000831205108510051105126430AF00003010
:100110006622E32883120510851005110516643048
:10012000AF0000306622E328831205108510051504
:1001300005126430AF0000306622E32883120510F8
:100140008510051505166430AF0000306622E328DF
:10015000831205108514051105126430AF000030BC
:100160006622E328831205108514051105166430F4
:10017000AF0000306622E3288312051085140515B0
:1001800005126430AF0000306622E32883120510A8
:100190008514051505166430AF0000306622E3288B
:1001A000831205148510051105126430AF0000306C
:1001B0006622E328831205148510051105166430A4
:1001C000AF0000306622B40A0319B50A12280800ED
:1001D0008430AE000230AF008030000000004522C5
:1001E0000000000083120000C3002F08C200863008
:1001F000C4000230C500831200004208C600430854
:10020000C700FF30C207031CC30347084604031995
:10021000802904304407C600C701C70D4508C70739
:100220004608AE004708AF008030000000004522BD
:100230000000000083120000C9002F08C800440815
:10024000AE004508AF0080300000000045220000ED
:10025000000083120000CB00C7002F08C600CA00B0
:1002600002304407C600C701C70D4508C707460846
:10027000AE004708AF0080300000000045220000BB
:10028000000083120000C700CD002F08CC00C6007C
:10029000831200004808CC004908CD00FF30C80791
:1002A000031CC9034D084C04031979294A08AE0000
:1002B0004B08AF0080300000000032220000000038
:1002C00083120000CC0046088312031384008313BA
:1002D00083120000471883174C0883120313800011
:1002E00083120000CA0A0319CB0AC60A0319C70AF7
:1002F0004829063083120000C4070318C50AFB28EA
:10030000000000000228080083120000CF002F0820
:10031000CE002E08D1002D08D0000314CF1F0310EB
:10032000D201D20D520803199D294E09D3004F095D
:10033000D400D30A0319D40AA329831200004E085B
:10034000D3004F08D400831200005308CE00540895
:10035000CF000314D11F0310031CB6295009D3008A
:100360005109D400D30A0319D40ABC29831200000E
:100370005008D3005108D400831200005308D00065
:10038000AD005408D100AE004E08AF004F08000089
:100390000000E5210000000083120000CF002F08BC
:1003A000CE0052080319DF294E09D2004F09D000B0
:1003B000D20A0319D00A5208AF005008E429831268
:1003C00000004E08AF004F08080083120000D6005E
:1003D0002F08D5002E08D8002D08D700D901DA0142
:1003E0008312000058088039031D0130DB005B08D0
:1003F000031D112A0310D70DD80D58085602031DEE
:10040000032A5708550203180B2A03108312000011
:10041000D80CD70C112A83120000DA0A5A08D90026
:10042000F0298312000058085602031D192A5708A4
:100430005502031C232A831200005708D5025808CE
:10044000031C580FD602031083120000D80CD70CDF
:100450005908DA00D9035A08031D112A5508AF00BC
:1004600056080800003A0319392A803A0319402A2D
:1004700000342E08840083132F1883170008080007
:100480002F088A002E0882000800003A03194D2A1E
:10049000803A0319572AAF0100342E0884008313D1
:1004A0002F1883170008AF00840A00080800000016
:1004B00000004022AD00AE0FAF03AF0A0000000005
:1004C0004022AC002D08AF002C080800BE002F0809
:1004D000BD00BF01C0013E084002031D712A3D0856
:1004E0003F020318832A04304002031D792AFB309F
:1004F0003F02C101031C41144108031D7C2ABF0AAD
:100500000319C00A6B2A0800013400348C34023409
:0A0510005C34003401340034003480
:02400E00973FDA
:00000001FF
