:020000040000FA
:100000000000AB2808308316850083128501BC01EF
:10001000BD018312851200303D02031D11280A30F4
:100020003C0203189F28BE0183128519BE0A3E08B0
:10003000013A031D9B2885163C08BE003D08003090
:100040003D02031D25280A303C0203189B2800307E
:100050008A002E303E0703188A0A82003828422878
:100060004C28562860286A2874287E2888289228D8
:10007000831205108510051105126430AF000030A1
:100080007B219B288312051085100511051664300D
:10009000AF0000307B219B288312051085100515C9
:1000A00005126430AF0000307B219B2883120510BD
:1000B0008510051505166430AF0000307B219B28A4
:1000C000831205108514051105126430AF0000304D
:1000D0007B219B28831205108514051105166430B9
:1000E000AF0000307B219B28831205108514051575
:1000F00005126430AF0000307B219B28831205106D
:100100008514051505166430AF0000307B219B284F
:10011000831205148510051105126430AF000030FC
:100120007B219B2883120514851005110516643068
:10013000AF0000307B21BC0A0319BD0A092800303A
:100140003D02031DA5280A303C02031C0928BC01FE
:10015000BD01092808009930AE000130AF008030A1
:10016000000000005A210000000083120000B100CE
:100170002F08B0009B30B2000130B30083120000A2
:100180003008B4003108B500FF30B007031CB103DC
:10019000350834040319432904303207B400B5018B
:1001A000B50D3308B5073408AE003508AF00803010
:1001B000000000005A210000000083120000B70078
:1001C0002F08B6003208AE003308AF0080300000C0
:1001D00000005A210000000083120000B900B500A1
:1001E0002F08B400B80002303207B400B501B50DD5
:1001F0003308B5073408AE003508AF008030000082
:1002000000005A210000000083120000B500BB006E
:100210002F08BA00B400831200003608BA0037086D
:10022000BB00FF30B607031CB7033B083A040319B1
:100230003C293808AE003908AF00803000000000CB
:1002400047210000000083120000BA003408831226
:1002500003138400831383120000351883173A08B0
:1002600083120313800083120000B80A0319B90A2D
:10027000B40A0319B50A0B29063083120000B2072D
:100280000318B30ABE280000000002280800003A44
:1002900003194E29803A0319552900342E08840089
:1002A00083132F188317000808002F088A002E08D0
:1002B00082000800003A03196229803A03196C2968
:1002C000AF0100342E08840083132F188317000811
:1002D000AF00840A00080800000000005521AD00AE
:1002E000AE0FAF03AF0A000000005521AC002D088F
:1002F000AF002C080800C0002F08BF00C101C201D8
:1003000040084202031D86293F084102031898292C
:1003100004304202031D8E29FB304102C301031C3D
:1003200043144308031D9129C10A0319C20A8029F5
:10033000080001340034A134013444340034013461
:040340000034003451
:02400E00D73F9A
:00000001FF
