:020000040000FA
:100000000000E8280830831685008312850104303B
:10001000B000B101B201B3010130B4000F30AF0044
:100020000030662283128512B5018519B50A35089C
:10003000013A031DE2288516B501B601B701B801E2
:100040003008B900BA01BB0100303802031D322864
:100050003B083702031D32283A083602031D3228B6
:1000600039083502031859283108B900390EF0391A
:10007000BA00B9003106BA003208B1003308B20044
:100080003408B3003A083406B9000310340CBB003E
:10009000B9063A08BB0003103B0DBA00BB00390695
:1000A000B400B50A0319B60A0319B70A0319B80A46
:1000B0002028B6010A30AD000030AE003408B5008B
:1000C000AF0000308421B6002F08B50000303602A2
:1000D000031D6C280A3035020318E22800308A001C
:1000E0007530350703188A0A82007F2889289328EB
:1000F0009D28A728B128BB28C528CF28D928831236
:1001000005108510051105120F30AF000030662272
:10011000E228831205108510051105160F30AF0077
:1001200000306622E228831205108510051505129D
:100130000F30AF0000306622E228831205108510D0
:10014000051505160F30AF0000306622E228831235
:1001500005108514051105120F30AF00003066221E
:10016000E228831205108514051105160F30AF0023
:1001700000306622E2288312051085140515051249
:100180000F30AF0000306622E2288312051085147C
:10019000051505160F30AF0000306622E2288312E5
:1001A00005148510051105120F30AF0000306622CE
:1001B000E228831205148510051105160F30AF00D3
:1001C000003066223008B500350AB0001228080059
:1001D0008430AE000230AF008030000000004522C5
:1001E0000000000083120000C2002F08C10086300A
:1001F000C3000230C400831200004108C500420859
:10020000C600FF30C107031CC2034608450403199A
:10021000802904304307C500C601C60D4408C6073F
:100220004508AE004608AF008030000000004522BF
:100230000000000083120000C8002F08C700430818
:10024000AE004408AF0080300000000045220000EE
:10025000000083120000CA00C6002F08C500C900B4
:1002600002304307C500C601C60D4408C60745084D
:10027000AE004608AF0080300000000045220000BC
:10028000000083120000C600CC002F08CB00C50080
:10029000831200004708CB004808CC00FF30C70796
:1002A000031CC8034C084B04031979294908AE0004
:1002B0004A08AF0080300000000032220000000039
:1002C00083120000CB0045088312031384008313BC
:1002D00083120000461883174B0883120313800013
:1002E00083120000C90A0319CA0AC50A0319C60AFB
:1002F0004829063083120000C3070318C40AFB28EC
:10030000000000000228080083120000CE002F0821
:10031000CD002E08D0002D08CF000314CE1F0310EF
:10032000D101D10D510803199D294D09D2004E0963
:10033000D300D20A0319D30AA329831200004D085F
:10034000D2004E08D300831200005208CD0053089B
:10035000CE000314D01F0310031CB6294F09D2008E
:100360005009D300D20A0319D30ABC298312000012
:100370004F08D2005008D300831200005208CF006B
:10038000AD005308D000AE004D08AF004E0800008D
:100390000000E5210000000083120000CE002F08BD
:1003A000CD0051080319DF294D09D1004E09CF00B6
:1003B000D10A0319CF0A5108AF004F08E42983126C
:1003C00000004D08AF004E08080083120000D50061
:1003D0002F08D4002E08D7002D08D600D801D90147
:1003E0008312000057088039031D0130DA005A08D3
:1003F000031D112A0310D60DD70D57085502031DF2
:10040000032A5608540203180B2A03108312000013
:10041000D70CD60C112A83120000D90A5908D8002B
:10042000F0298312000057085502031D192A5608A7
:100430005402031C232A831200005608D4025708D2
:10044000031C570FD502031083120000D70CD60CE3
:100450005808D900D8035908031D112A5408AF00C1
:1004600055080800003A0319392A803A0319402A2E
:1004700000342E08840083132F1883170008080007
:100480002F088A002E0882000800003A03194D2A1E
:10049000803A0319572AAF0100342E0884008313D1
:1004A0002F1883170008AF00840A00080800000016
:1004B00000004022AD00AE0FAF03AF0A0000000005
:1004C0004022AC002D08AF002C080800BD002F080A
:1004D000BC00BE01BF013D083F02031D712A3C085C
:1004E0003E020318832A04303F02031D792AFB30A1
:1004F0003E02C001031C40144008031D7C2ABE0AB2
:100500000319BF0A6B2A0800013400348C3402340A
:0A0510005B34003401340034003481
:02400E00973FDA
:00000001FF
